S01D00003842697442696E6172794C696768745377697463682E73726563E1
S11300000C9434000C943E000C943E000C943E007E
S11300100C943E000C943E000C943E000C943E0064
S11300200C943E000C943E000C943E000C943E0054
S11300300C943E000C943E000C943E000C943E0044
S11300400C943E000C943E000C943E000C943E0034
S11300500C943E000C943E000C943E000C943E0024
S11300600C943E000C943E0011241FBECFEFD8E048
S1130070DEBFCDBF0E9447000C9475000C940000B5
S11300808AB18C6F8AB984B1887F84B908950E943B
S1130090400083B18770833079F028F48130A1F077
S11300A0823041F005C0853059F040F0863051F07F
S11300B020E00BC028E009C020E107C020E205C011
S11300C020E403C020E801C024E09BB193709BB9F5
S11300D08BB1822B8BB92FE788E391E021508040CC
S11100E09040E1F700C00000D4CFF894FFCFA9
S9030000FC
